{
  "_format": "hh-sol-artifact-1",
  "contractName": "DegenERC20",
  "sourceName": "contracts/DegenERC20.sol",
  "abi": [
    {
      "inputs": [
        {
          "internalType": "uint256",
          "name": "_amount",
          "type": "uint256"
        },
        {
          "internalType": "uint256",
          "name": "_tokenToMint",
          "type": "uint256"
        }
      ],
      "stateMutability": "nonpayable",
      "type": "constructor"
    },
    {
      "anonymous": false,
      "inputs": [
        {
          "indexed": true,
          "internalType": "address",
          "name": "owner",
          "type": "address"
        },
        {
          "indexed": true,
          "internalType": "address",
          "name": "spender",
          "type": "address"
        },
        {
          "indexed": false,
          "internalType": "uint256",
          "name": "value",
          "type": "uint256"
        }
      ],
      "name": "Approval",
      "type": "event"
    },
    {
      "anonymous": false,
      "inputs": [
        {
          "indexed": true,
          "internalType": "address",
          "name": "from",
          "type": "address"
        },
        {
          "indexed": true,
          "internalType": "address",
          "name": "to",
          "type": "address"
        },
        {
          "indexed": false,
          "internalType": "uint256",
          "name": "value",
          "type": "uint256"
        }
      ],
      "name": "Transfer",
      "type": "event"
    },
    {
      "inputs": [
        {
          "internalType": "address",
          "name": "owner",
          "type": "address"
        },
        {
          "internalType": "address",
          "name": "spender",
          "type": "address"
        }
      ],
      "name": "allowance",
      "outputs": [
        {
          "internalType": "uint256",
          "name": "",
          "type": "uint256"
        }
      ],
      "stateMutability": "view",
      "type": "function"
    },
    {
      "inputs": [
        {
          "internalType": "address",
          "name": "spender",
          "type": "address"
        },
        {
          "internalType": "uint256",
          "name": "amount",
          "type": "uint256"
        }
      ],
      "name": "approve",
      "outputs": [
        {
          "internalType": "bool",
          "name": "",
          "type": "bool"
        }
      ],
      "stateMutability": "nonpayable",
      "type": "function"
    },
    {
      "inputs": [
        {
          "internalType": "address",
          "name": "account",
          "type": "address"
        }
      ],
      "name": "balanceOf",
      "outputs": [
        {
          "internalType": "uint256",
          "name": "",
          "type": "uint256"
        }
      ],
      "stateMutability": "view",
      "type": "function"
    },
    {
      "inputs": [
        {
          "internalType": "uint256",
          "name": "_tokenAmount",
          "type": "uint256"
        }
      ],
      "name": "burnToken",
      "outputs": [],
      "stateMutability": "nonpayable",
      "type": "function"
    },
    {
      "inputs": [],
      "name": "checkingBalance",
      "outputs": [
        {
          "internalType": "uint256",
          "name": "",
          "type": "uint256"
        }
      ],
      "stateMutability": "view",
      "type": "function"
    },
    {
      "inputs": [],
      "name": "decimals",
      "outputs": [
        {
          "internalType": "uint8",
          "name": "",
          "type": "uint8"
        }
      ],
      "stateMutability": "view",
      "type": "function"
    },
    {
      "inputs": [
        {
          "internalType": "address",
          "name": "spender",
          "type": "address"
        },
        {
          "internalType": "uint256",
          "name": "subtractedValue",
          "type": "uint256"
        }
      ],
      "name": "decreaseAllowance",
      "outputs": [
        {
          "internalType": "bool",
          "name": "",
          "type": "bool"
        }
      ],
      "stateMutability": "nonpayable",
      "type": "function"
    },
    {
      "inputs": [
        {
          "internalType": "address",
          "name": "spender",
          "type": "address"
        },
        {
          "internalType": "uint256",
          "name": "addedValue",
          "type": "uint256"
        }
      ],
      "name": "increaseAllowance",
      "outputs": [
        {
          "internalType": "bool",
          "name": "",
          "type": "bool"
        }
      ],
      "stateMutability": "nonpayable",
      "type": "function"
    },
    {
      "inputs": [
        {
          "internalType": "address",
          "name": "_address",
          "type": "address"
        },
        {
          "internalType": "uint256",
          "name": "_amount",
          "type": "uint256"
        }
      ],
      "name": "mintTokenReward",
      "outputs": [],
      "stateMutability": "nonpayable",
      "type": "function"
    },
    {
      "inputs": [],
      "name": "name",
      "outputs": [
        {
          "internalType": "string",
          "name": "",
          "type": "string"
        }
      ],
      "stateMutability": "view",
      "type": "function"
    },
    {
      "inputs": [
        {
          "internalType": "uint256",
          "name": "_tokenAmount",
          "type": "uint256"
        }
      ],
      "name": "redeemTokens",
      "outputs": [],
      "stateMutability": "payable",
      "type": "function"
    },
    {
      "inputs": [],
      "name": "symbol",
      "outputs": [
        {
          "internalType": "string",
          "name": "",
          "type": "string"
        }
      ],
      "stateMutability": "view",
      "type": "function"
    },
    {
      "inputs": [],
      "name": "totalSupply",
      "outputs": [
        {
          "internalType": "uint256",
          "name": "",
          "type": "uint256"
        }
      ],
      "stateMutability": "view",
      "type": "function"
    },
    {
      "inputs": [
        {
          "internalType": "address",
          "name": "_recepient",
          "type": "address"
        },
        {
          "internalType": "uint256",
          "name": "_amount",
          "type": "uint256"
        }
      ],
      "name": "tranferTokens",
      "outputs": [],
      "stateMutability": "nonpayable",
      "type": "function"
    },
    {
      "inputs": [
        {
          "internalType": "address",
          "name": "to",
          "type": "address"
        },
        {
          "internalType": "uint256",
          "name": "amount",
          "type": "uint256"
        }
      ],
      "name": "transfer",
      "outputs": [
        {
          "internalType": "bool",
          "name": "",
          "type": "bool"
        }
      ],
      "stateMutability": "nonpayable",
      "type": "function"
    },
    {
      "inputs": [
        {
          "internalType": "address",
          "name": "from",
          "type": "address"
        },
        {
          "internalType": "address",
          "name": "to",
          "type": "address"
        },
        {
          "internalType": "uint256",
          "name": "amount",
          "type": "uint256"
        }
      ],
      "name": "transferFrom",
      "outputs": [
        {
          "internalType": "bool",
          "name": "",
          "type": "bool"
        }
      ],
      "stateMutability": "nonpayable",
      "type": "function"
    },
    {
      "stateMutability": "payable",
      "type": "receive"
    }
  ],
  "bytecode": "0x60c06040523480156200001157600080fd5b50604051620022a0380380620022a08339818101604052810190620000379190620002d6565b6040518060400160405280600581526020017f446567656e0000000000000000000000000000000000000000000000000000008152506040518060400160405280600381526020017f44474e00000000000000000000000000000000000000000000000000000000008152508160039081620000b491906200058d565b508060049081620000c691906200058d565b5050503373ffffffffffffffffffffffffffffffffffffffff1660808173ffffffffffffffffffffffffffffffffffffffff16815250508160a081815250506200011733826200011f60201b60201c565b50506200078f565b600073ffffffffffffffffffffffffffffffffffffffff168273ffffffffffffffffffffffffffffffffffffffff160362000191576040517f08c379a00000000000000000000000000000000000000000000000000000000081526004016200018890620006d5565b60405180910390fd5b620001a5600083836200028c60201b60201c565b8060026000828254620001b9919062000726565b92505081905550806000808473ffffffffffffffffffffffffffffffffffffffff1673ffffffffffffffffffffffffffffffffffffffff168152602001908152602001600020600082825401925050819055508173ffffffffffffffffffffffffffffffffffffffff16600073ffffffffffffffffffffffffffffffffffffffff167fddf252ad1be2c89b69c2b068fc378daa952ba7f163c4a11628f55a4df523b3ef836040516200026c919062000772565b60405180910390a362000288600083836200029160201b60201c565b5050565b505050565b505050565b600080fd5b6000819050919050565b620002b0816200029b565b8114620002bc57600080fd5b50565b600081519050620002d081620002a5565b92915050565b60008060408385031215620002f057620002ef62000296565b5b60006200030085828601620002bf565b92505060206200031385828601620002bf565b9150509250929050565b600081519050919050565b7f4e487b7100000000000000000000000000000000000000000000000000000000600052604160045260246000fd5b7f4e487b7100000000000000000000000000000000000000000000000000000000600052602260045260246000fd5b600060028204905060018216806200039f57607f821691505b602082108103620003b557620003b462000357565b5b50919050565b60008190508160005260206000209050919050565b60006020601f8301049050919050565b600082821b905092915050565b6000600883026200041f7fffffffffffffffffffffffffffffffffffffffffffffffffffffffffffffffff82620003e0565b6200042b8683620003e0565b95508019841693508086168417925050509392505050565b6000819050919050565b60006200046e6200046862000462846200029b565b62000443565b6200029b565b9050919050565b6000819050919050565b6200048a836200044d565b620004a2620004998262000475565b848454620003ed565b825550505050565b600090565b620004b9620004aa565b620004c68184846200047f565b505050565b5b81811015620004ee57620004e2600082620004af565b600181019050620004cc565b5050565b601f8211156200053d576200050781620003bb565b6200051284620003d0565b8101602085101562000522578190505b6200053a6200053185620003d0565b830182620004cb565b50505b505050565b600082821c905092915050565b6000620005626000198460080262000542565b1980831691505092915050565b60006200057d83836200054f565b9150826002028217905092915050565b62000598826200031d565b67ffffffffffffffff811115620005b457620005b362000328565b5b620005c0825462000386565b620005cd828285620004f2565b600060209050601f831160018114620006055760008415620005f0578287015190505b620005fc85826200056f565b8655506200066c565b601f1984166200061586620003bb565b60005b828110156200063f5784890151825560018201915060208501945060208101905062000618565b868310156200065f57848901516200065b601f8916826200054f565b8355505b6001600288020188555050505b505050505050565b600082825260208201905092915050565b7f45524332303a206d696e7420746f20746865207a65726f206164647265737300600082015250565b6000620006bd601f8362000674565b9150620006ca8262000685565b602082019050919050565b60006020820190508181036000830152620006f081620006ae565b9050919050565b7f4e487b7100000000000000000000000000000000000000000000000000000000600052601160045260246000fd5b600062000733826200029b565b915062000740836200029b565b92508282019050808211156200075b576200075a620006f7565b5b92915050565b6200076c816200029b565b82525050565b600060208201905062000789600083018462000761565b92915050565b60805160a051611ae4620007bc600039600061073501526000818161070c01526108180152611ae46000f3fe6080604052600436106100f75760003560e01c80637b47ec1a1161008a578063a6e158f811610059578063a6e158f81461035d578063a9059cbb14610379578063b246e386146103b6578063dd62ed3e146103df576100fe565b80637b47ec1a146102a357806382c086e2146102cc57806395d89b41146102f5578063a457c2d714610320576100fe565b8063313ce567116100c6578063313ce567146101d357806339509351146101fe5780634fda70d11461023b57806370a0823114610266576100fe565b806306fdde0314610103578063095ea7b31461012e57806318160ddd1461016b57806323b872dd14610196576100fe565b366100fe57005b600080fd5b34801561010f57600080fd5b5061011861041c565b604051610125919061117c565b60405180910390f35b34801561013a57600080fd5b5061015560048036038101906101509190611237565b6104ae565b6040516101629190611292565b60405180910390f35b34801561017757600080fd5b506101806104d1565b60405161018d91906112bc565b60405180910390f35b3480156101a257600080fd5b506101bd60048036038101906101b891906112d7565b6104db565b6040516101ca9190611292565b60405180910390f35b3480156101df57600080fd5b506101e861050a565b6040516101f59190611346565b60405180910390f35b34801561020a57600080fd5b5061022560048036038101906102209190611237565b610513565b6040516102329190611292565b60405180910390f35b34801561024757600080fd5b5061025061054a565b60405161025d91906112bc565b60405180910390f35b34801561027257600080fd5b5061028d60048036038101906102889190611361565b61055a565b60405161029a91906112bc565b60405180910390f35b3480156102af57600080fd5b506102ca60048036038101906102c5919061138e565b6105a2565b005b3480156102d857600080fd5b506102f360048036038101906102ee9190611237565b6105c4565b005b34801561030157600080fd5b5061030a6105e8565b604051610317919061117c565b60405180910390f35b34801561032c57600080fd5b5061034760048036038101906103429190611237565b61067a565b6040516103549190611292565b60405180910390f35b6103776004803603810190610372919061138e565b6106f1565b005b34801561038557600080fd5b506103a0600480360381019061039b9190611237565b6107dc565b6040516103ad9190611292565b60405180910390f35b3480156103c257600080fd5b506103dd60048036038101906103d89190611237565b6107ff565b005b3480156103eb57600080fd5b50610406600480360381019061040191906113bb565b610865565b60405161041391906112bc565b60405180910390f35b60606003805461042b9061142a565b80601f01602080910402602001604051908101604052809291908181526020018280546104579061142a565b80156104a45780601f10610479576101008083540402835291602001916104a4565b820191906000526020600020905b81548152906001019060200180831161048757829003601f168201915b5050505050905090565b6000806104b96108ec565b90506104c68185856108f4565b600191505092915050565b6000600254905090565b6000806104e66108ec565b90506104f3858285610abd565b6104fe858585610b49565b60019150509392505050565b60006012905090565b60008061051e6108ec565b905061053f8185856105308589610865565b61053a919061148a565b6108f4565b600191505092915050565b60006105553361055a565b905090565b60008060008373ffffffffffffffffffffffffffffffffffffffff1673ffffffffffffffffffffffffffffffffffffffff168152602001908152602001600020549050919050565b806105ac3361055a565b10156105b757600080fd5b6105c13382610dbf565b50565b806105ce3361055a565b10156105d957600080fd5b6105e382826107dc565b505050565b6060600480546105f79061142a565b80601f01602080910402602001604051908101604052809291908181526020018280546106239061142a565b80156106705780601f1061064557610100808354040283529160200191610670565b820191906000526020600020905b81548152906001019060200180831161065357829003601f168201915b5050505050905090565b6000806106856108ec565b905060006106938286610865565b9050838110156106d8576040517f08c379a00000000000000000000000000000000000000000000000000000000081526004016106cf90611530565b60405180910390fd5b6106e582868684036108f4565b60019250505092915050565b806106fb3361055a565b101561070657600080fd5b610731337f000000000000000000000000000000000000000000000000000000000000000083610b49565b60007f00000000000000000000000000000000000000000000000000000000000000008261075f9190611550565b905060003373ffffffffffffffffffffffffffffffffffffffff1682604051610787906115c3565b60006040518083038185875af1925050503d80600081146107c4576040519150601f19603f3d011682016040523d82523d6000602084013e6107c9565b606091505b50509050806107d757600080fd5b505050565b6000806107e76108ec565b90506107f4818585610b49565b600191505092915050565b3373ffffffffffffffffffffffffffffffffffffffff167f000000000000000000000000000000000000000000000000000000000000000073ffffffffffffffffffffffffffffffffffffffff161461085757600080fd5b6108618282610f8c565b5050565b6000600160008473ffffffffffffffffffffffffffffffffffffffff1673ffffffffffffffffffffffffffffffffffffffff16815260200190815260200160002060008373ffffffffffffffffffffffffffffffffffffffff1673ffffffffffffffffffffffffffffffffffffffff16815260200190815260200160002054905092915050565b600033905090565b600073ffffffffffffffffffffffffffffffffffffffff168373ffffffffffffffffffffffffffffffffffffffff1603610963576040517f08c379a000000000000000000000000000000000000000000000000000000000815260040161095a9061164a565b60405180910390fd5b600073ffffffffffffffffffffffffffffffffffffffff168273ffffffffffffffffffffffffffffffffffffffff16036109d2576040517f08c379a00000000000000000000000000000000000000000000000000000000081526004016109c9906116dc565b60405180910390fd5b80600160008573ffffffffffffffffffffffffffffffffffffffff1673ffffffffffffffffffffffffffffffffffffffff16815260200190815260200160002060008473ffffffffffffffffffffffffffffffffffffffff1673ffffffffffffffffffffffffffffffffffffffff168152602001908152602001600020819055508173ffffffffffffffffffffffffffffffffffffffff168373ffffffffffffffffffffffffffffffffffffffff167f8c5be1e5ebec7d5bd14f71427d1e84f3dd0314c0f7b2291e5b200ac8c7c3b92583604051610ab091906112bc565b60405180910390a3505050565b6000610ac98484610865565b90507fffffffffffffffffffffffffffffffffffffffffffffffffffffffffffffffff8114610b435781811015610b35576040517f08c379a0000000000000000000000000000000000000000000000000000000008152600401610b2c90611748565b60405180910390fd5b610b4284848484036108f4565b5b50505050565b600073ffffffffffffffffffffffffffffffffffffffff168373ffffffffffffffffffffffffffffffffffffffff1603610bb8576040517f08c379a0000000000000000000000000000000000000000000000000000000008152600401610baf906117da565b60405180910390fd5b600073ffffffffffffffffffffffffffffffffffffffff168273ffffffffffffffffffffffffffffffffffffffff1603610c27576040517f08c379a0000000000000000000000000000000000000000000000000000000008152600401610c1e9061186c565b60405180910390fd5b610c328383836110e2565b60008060008573ffffffffffffffffffffffffffffffffffffffff1673ffffffffffffffffffffffffffffffffffffffff16815260200190815260200160002054905081811015610cb8576040517f08c379a0000000000000000000000000000000000000000000000000000000008152600401610caf906118fe565b60405180910390fd5b8181036000808673ffffffffffffffffffffffffffffffffffffffff1673ffffffffffffffffffffffffffffffffffffffff16815260200190815260200160002081905550816000808573ffffffffffffffffffffffffffffffffffffffff1673ffffffffffffffffffffffffffffffffffffffff168152602001908152602001600020600082825401925050819055508273ffffffffffffffffffffffffffffffffffffffff168473ffffffffffffffffffffffffffffffffffffffff167fddf252ad1be2c89b69c2b068fc378daa952ba7f163c4a11628f55a4df523b3ef84604051610da691906112bc565b60405180910390a3610db98484846110e7565b50505050565b600073ffffffffffffffffffffffffffffffffffffffff168273ffffffffffffffffffffffffffffffffffffffff1603610e2e576040517f08c379a0000000000000000000000000000000000000000000000000000000008152600401610e2590611990565b60405180910390fd5b610e3a826000836110e2565b60008060008473ffffffffffffffffffffffffffffffffffffffff1673ffffffffffffffffffffffffffffffffffffffff16815260200190815260200160002054905081811015610ec0576040517f08c379a0000000000000000000000000000000000000000000000000000000008152600401610eb790611a22565b60405180910390fd5b8181036000808573ffffffffffffffffffffffffffffffffffffffff1673ffffffffffffffffffffffffffffffffffffffff1681526020019081526020016000208190555081600260008282540392505081905550600073ffffffffffffffffffffffffffffffffffffffff168373ffffffffffffffffffffffffffffffffffffffff167fddf252ad1be2c89b69c2b068fc378daa952ba7f163c4a11628f55a4df523b3ef84604051610f7391906112bc565b60405180910390a3610f87836000846110e7565b505050565b600073ffffffffffffffffffffffffffffffffffffffff168273ffffffffffffffffffffffffffffffffffffffff1603610ffb576040517f08c379a0000000000000000000000000000000000000000000000000000000008152600401610ff290611a8e565b60405180910390fd5b611007600083836110e2565b8060026000828254611019919061148a565b92505081905550806000808473ffffffffffffffffffffffffffffffffffffffff1673ffffffffffffffffffffffffffffffffffffffff168152602001908152602001600020600082825401925050819055508173ffffffffffffffffffffffffffffffffffffffff16600073ffffffffffffffffffffffffffffffffffffffff167fddf252ad1be2c89b69c2b068fc378daa952ba7f163c4a11628f55a4df523b3ef836040516110ca91906112bc565b60405180910390a36110de600083836110e7565b5050565b505050565b505050565b600081519050919050565b600082825260208201905092915050565b60005b8381101561112657808201518184015260208101905061110b565b60008484015250505050565b6000601f19601f8301169050919050565b600061114e826110ec565b61115881856110f7565b9350611168818560208601611108565b61117181611132565b840191505092915050565b600060208201905081810360008301526111968184611143565b905092915050565b600080fd5b600073ffffffffffffffffffffffffffffffffffffffff82169050919050565b60006111ce826111a3565b9050919050565b6111de816111c3565b81146111e957600080fd5b50565b6000813590506111fb816111d5565b92915050565b6000819050919050565b61121481611201565b811461121f57600080fd5b50565b6000813590506112318161120b565b92915050565b6000806040838503121561124e5761124d61119e565b5b600061125c858286016111ec565b925050602061126d85828601611222565b9150509250929050565b60008115159050919050565b61128c81611277565b82525050565b60006020820190506112a76000830184611283565b92915050565b6112b681611201565b82525050565b60006020820190506112d160008301846112ad565b92915050565b6000806000606084860312156112f0576112ef61119e565b5b60006112fe868287016111ec565b935050602061130f868287016111ec565b925050604061132086828701611222565b9150509250925092565b600060ff82169050919050565b6113408161132a565b82525050565b600060208201905061135b6000830184611337565b92915050565b6000602082840312156113775761137661119e565b5b6000611385848285016111ec565b91505092915050565b6000602082840312156113a4576113a361119e565b5b60006113b284828501611222565b91505092915050565b600080604083850312156113d2576113d161119e565b5b60006113e0858286016111ec565b92505060206113f1858286016111ec565b9150509250929050565b7f4e487b7100000000000000000000000000000000000000000000000000000000600052602260045260246000fd5b6000600282049050600182168061144257607f821691505b602082108103611455576114546113fb565b5b50919050565b7f4e487b7100000000000000000000000000000000000000000000000000000000600052601160045260246000fd5b600061149582611201565b91506114a083611201565b92508282019050808211156114b8576114b761145b565b5b92915050565b7f45524332303a2064656372656173656420616c6c6f77616e63652062656c6f7760008201527f207a65726f000000000000000000000000000000000000000000000000000000602082015250565b600061151a6025836110f7565b9150611525826114be565b604082019050919050565b600060208201905081810360008301526115498161150d565b9050919050565b600061155b82611201565b915061156683611201565b925082820261157481611201565b9150828204841483151761158b5761158a61145b565b5b5092915050565b600081905092915050565b50565b60006115ad600083611592565b91506115b88261159d565b600082019050919050565b60006115ce826115a0565b9150819050919050565b7f45524332303a20617070726f76652066726f6d20746865207a65726f2061646460008201527f7265737300000000000000000000000000000000000000000000000000000000602082015250565b60006116346024836110f7565b915061163f826115d8565b604082019050919050565b6000602082019050818103600083015261166381611627565b9050919050565b7f45524332303a20617070726f766520746f20746865207a65726f20616464726560008201527f7373000000000000000000000000000000000000000000000000000000000000602082015250565b60006116c66022836110f7565b91506116d18261166a565b604082019050919050565b600060208201905081810360008301526116f5816116b9565b9050919050565b7f45524332303a20696e73756666696369656e7420616c6c6f77616e6365000000600082015250565b6000611732601d836110f7565b915061173d826116fc565b602082019050919050565b6000602082019050818103600083015261176181611725565b9050919050565b7f45524332303a207472616e736665722066726f6d20746865207a65726f20616460008201527f6472657373000000000000000000000000000000000000000000000000000000602082015250565b60006117c46025836110f7565b91506117cf82611768565b604082019050919050565b600060208201905081810360008301526117f3816117b7565b9050919050565b7f45524332303a207472616e7366657220746f20746865207a65726f206164647260008201527f6573730000000000000000000000000000000000000000000000000000000000602082015250565b60006118566023836110f7565b9150611861826117fa565b604082019050919050565b6000602082019050818103600083015261188581611849565b9050919050565b7f45524332303a207472616e7366657220616d6f756e742065786365656473206260008201527f616c616e63650000000000000000000000000000000000000000000000000000602082015250565b60006118e86026836110f7565b91506118f38261188c565b604082019050919050565b60006020820190508181036000830152611917816118db565b9050919050565b7f45524332303a206275726e2066726f6d20746865207a65726f2061646472657360008201527f7300000000000000000000000000000000000000000000000000000000000000602082015250565b600061197a6021836110f7565b91506119858261191e565b604082019050919050565b600060208201905081810360008301526119a98161196d565b9050919050565b7f45524332303a206275726e20616d6f756e7420657863656564732062616c616e60008201527f6365000000000000000000000000000000000000000000000000000000000000602082015250565b6000611a0c6022836110f7565b9150611a17826119b0565b604082019050919050565b60006020820190508181036000830152611a3b816119ff565b9050919050565b7f45524332303a206d696e7420746f20746865207a65726f206164647265737300600082015250565b6000611a78601f836110f7565b9150611a8382611a42565b602082019050919050565b60006020820190508181036000830152611aa781611a6b565b905091905056fea264697066735822122040403a780a29371112872ec7056303f65d875b5728047a905350251ff5cef4f364736f6c63430008120033",
  "linkReferences": {},
  "deployedLinkReferences": {}
}